{
  "contractName": "ERC20Collateral",
  "abi": [
    {
      "inputs": [
        {
          "internalType": "string",
          "name": "name_",
          "type": "string"
        },
        {
          "internalType": "string",
          "name": "symbol_",
          "type": "string"
        },
        {
          "internalType": "address",
          "name": "collateral_contract_",
          "type": "address"
        }
      ],
      "stateMutability": "nonpayable",
      "type": "constructor"
    },
    {
      "anonymous": false,
      "inputs": [
        {
          "indexed": true,
          "internalType": "address",
          "name": "owner",
          "type": "address"
        },
        {
          "indexed": true,
          "internalType": "address",
          "name": "spender",
          "type": "address"
        },
        {
          "indexed": false,
          "internalType": "uint256",
          "name": "value",
          "type": "uint256"
        }
      ],
      "name": "Approval",
      "type": "event"
    },
    {
      "anonymous": false,
      "inputs": [
        {
          "indexed": true,
          "internalType": "address",
          "name": "previousOwner",
          "type": "address"
        },
        {
          "indexed": true,
          "internalType": "address",
          "name": "newOwner",
          "type": "address"
        }
      ],
      "name": "OwnershipTransferred",
      "type": "event"
    },
    {
      "anonymous": false,
      "inputs": [
        {
          "indexed": true,
          "internalType": "address",
          "name": "from",
          "type": "address"
        },
        {
          "indexed": true,
          "internalType": "address",
          "name": "to",
          "type": "address"
        },
        {
          "indexed": false,
          "internalType": "uint256",
          "name": "value",
          "type": "uint256"
        }
      ],
      "name": "Transfer",
      "type": "event"
    },
    {
      "inputs": [
        {
          "internalType": "address",
          "name": "owner",
          "type": "address"
        },
        {
          "internalType": "address",
          "name": "spender",
          "type": "address"
        }
      ],
      "name": "allowance",
      "outputs": [
        {
          "internalType": "uint256",
          "name": "",
          "type": "uint256"
        }
      ],
      "stateMutability": "view",
      "type": "function",
      "constant": true
    },
    {
      "inputs": [
        {
          "internalType": "address",
          "name": "spender",
          "type": "address"
        },
        {
          "internalType": "uint256",
          "name": "amount",
          "type": "uint256"
        }
      ],
      "name": "approve",
      "outputs": [
        {
          "internalType": "bool",
          "name": "",
          "type": "bool"
        }
      ],
      "stateMutability": "nonpayable",
      "type": "function"
    },
    {
      "inputs": [
        {
          "internalType": "address",
          "name": "account",
          "type": "address"
        }
      ],
      "name": "balanceOf",
      "outputs": [
        {
          "internalType": "uint256",
          "name": "",
          "type": "uint256"
        }
      ],
      "stateMutability": "view",
      "type": "function",
      "constant": true
    },
    {
      "inputs": [
        {
          "internalType": "uint256",
          "name": "amount",
          "type": "uint256"
        }
      ],
      "name": "burn",
      "outputs": [],
      "stateMutability": "nonpayable",
      "type": "function"
    },
    {
      "inputs": [
        {
          "internalType": "address",
          "name": "account",
          "type": "address"
        },
        {
          "internalType": "uint256",
          "name": "amount",
          "type": "uint256"
        }
      ],
      "name": "burnFrom",
      "outputs": [],
      "stateMutability": "nonpayable",
      "type": "function"
    },
    {
      "inputs": [],
      "name": "collateral_contract",
      "outputs": [
        {
          "internalType": "address",
          "name": "",
          "type": "address"
        }
      ],
      "stateMutability": "view",
      "type": "function",
      "constant": true
    },
    {
      "inputs": [],
      "name": "decimals",
      "outputs": [
        {
          "internalType": "uint8",
          "name": "",
          "type": "uint8"
        }
      ],
      "stateMutability": "view",
      "type": "function",
      "constant": true
    },
    {
      "inputs": [
        {
          "internalType": "address",
          "name": "spender",
          "type": "address"
        },
        {
          "internalType": "uint256",
          "name": "subtractedValue",
          "type": "uint256"
        }
      ],
      "name": "decreaseAllowance",
      "outputs": [
        {
          "internalType": "bool",
          "name": "",
          "type": "bool"
        }
      ],
      "stateMutability": "nonpayable",
      "type": "function"
    },
    {
      "inputs": [
        {
          "internalType": "address",
          "name": "spender",
          "type": "address"
        },
        {
          "internalType": "uint256",
          "name": "addedValue",
          "type": "uint256"
        }
      ],
      "name": "increaseAllowance",
      "outputs": [
        {
          "internalType": "bool",
          "name": "",
          "type": "bool"
        }
      ],
      "stateMutability": "nonpayable",
      "type": "function"
    },
    {
      "inputs": [],
      "name": "initialized",
      "outputs": [
        {
          "internalType": "bool",
          "name": "",
          "type": "bool"
        }
      ],
      "stateMutability": "view",
      "type": "function",
      "constant": true
    },
    {
      "inputs": [],
      "name": "markup",
      "outputs": [
        {
          "internalType": "uint256",
          "name": "",
          "type": "uint256"
        }
      ],
      "stateMutability": "view",
      "type": "function",
      "constant": true
    },
    {
      "inputs": [],
      "name": "markup_decimals",
      "outputs": [
        {
          "internalType": "uint8",
          "name": "",
          "type": "uint8"
        }
      ],
      "stateMutability": "view",
      "type": "function",
      "constant": true
    },
    {
      "inputs": [],
      "name": "name",
      "outputs": [
        {
          "internalType": "string",
          "name": "",
          "type": "string"
        }
      ],
      "stateMutability": "view",
      "type": "function",
      "constant": true
    },
    {
      "inputs": [],
      "name": "owner",
      "outputs": [
        {
          "internalType": "address",
          "name": "",
          "type": "address"
        }
      ],
      "stateMutability": "view",
      "type": "function",
      "constant": true
    },
    {
      "inputs": [],
      "name": "renounceOwnership",
      "outputs": [],
      "stateMutability": "nonpayable",
      "type": "function"
    },
    {
      "inputs": [],
      "name": "symbol",
      "outputs": [
        {
          "internalType": "string",
          "name": "",
          "type": "string"
        }
      ],
      "stateMutability": "view",
      "type": "function",
      "constant": true
    },
    {
      "inputs": [],
      "name": "totalSupply",
      "outputs": [
        {
          "internalType": "uint256",
          "name": "",
          "type": "uint256"
        }
      ],
      "stateMutability": "view",
      "type": "function",
      "constant": true
    },
    {
      "inputs": [
        {
          "internalType": "address",
          "name": "recipient",
          "type": "address"
        },
        {
          "internalType": "uint256",
          "name": "amount",
          "type": "uint256"
        }
      ],
      "name": "transfer",
      "outputs": [
        {
          "internalType": "bool",
          "name": "",
          "type": "bool"
        }
      ],
      "stateMutability": "nonpayable",
      "type": "function"
    },
    {
      "inputs": [
        {
          "internalType": "address",
          "name": "sender",
          "type": "address"
        },
        {
          "internalType": "address",
          "name": "recipient",
          "type": "address"
        },
        {
          "internalType": "uint256",
          "name": "amount",
          "type": "uint256"
        }
      ],
      "name": "transferFrom",
      "outputs": [
        {
          "internalType": "bool",
          "name": "",
          "type": "bool"
        }
      ],
      "stateMutability": "nonpayable",
      "type": "function"
    },
    {
      "inputs": [
        {
          "internalType": "address",
          "name": "newOwner",
          "type": "address"
        }
      ],
      "name": "transferOwnership",
      "outputs": [],
      "stateMutability": "nonpayable",
      "type": "function"
    },
    {
      "inputs": [
        {
          "internalType": "uint256",
          "name": "collateral",
          "type": "uint256"
        },
        {
          "internalType": "uint256",
          "name": "starting_ratio",
          "type": "uint256"
        }
      ],
      "name": "initiliaze",
      "outputs": [],
      "stateMutability": "nonpayable",
      "type": "function"
    },
    {
      "inputs": [
        {
          "internalType": "address",
          "name": "to",
          "type": "address"
        },
        {
          "internalType": "uint256",
          "name": "amount",
          "type": "uint256"
        }
      ],
      "name": "mint",
      "outputs": [],
      "stateMutability": "nonpayable",
      "type": "function"
    },
    {
      "inputs": [
        {
          "internalType": "address",
          "name": "to",
          "type": "address"
        },
        {
          "internalType": "uint256",
          "name": "amount",
          "type": "uint256"
        }
      ],
      "name": "withdraw",
      "outputs": [],
      "stateMutability": "nonpayable",
      "type": "function"
    },
    {
      "inputs": [
        {
          "internalType": "uint16",
          "name": "val",
          "type": "uint16"
        }
      ],
      "name": "setMarkup",
      "outputs": [],
      "stateMutability": "nonpayable",
      "type": "function"
    },
    {
      "inputs": [],
      "name": "collateralBalance",
      "outputs": [
        {
          "internalType": "uint256",
          "name": "",
          "type": "uint256"
        }
      ],
      "stateMutability": "view",
      "type": "function",
      "constant": true
    },
    {
      "inputs": [],
      "name": "buyingPrice",
      "outputs": [
        {
          "internalType": "uint256",
          "name": "",
          "type": "uint256"
        }
      ],
      "stateMutability": "view",
      "type": "function",
      "constant": true
    },
    {
      "inputs": [],
      "name": "collateralPrice",
      "outputs": [
        {
          "internalType": "uint256",
          "name": "",
          "type": "uint256"
        }
      ],
      "stateMutability": "view",
      "type": "function",
      "constant": true
    },
    {
      "inputs": [],
      "name": "collateralRatio",
      "outputs": [
        {
          "internalType": "uint256",
          "name": "",
          "type": "uint256"
        }
      ],
      "stateMutability": "view",
      "type": "function",
      "constant": true
    }
  ],
  "bytecode": "0x60a06040526004600a62000014919062000470565b6001620000229190620005ad565b6006556000600760006101000a81548160ff0219169083151502179055503480156200004d57600080fd5b50604051620038593803806200385983398181016040528101906200007391906200032e565b828281600390805190602001906200008d929190620001f5565b508060049080519060200190620000a6929190620001f5565b505050620000db620000c662000127640100000000026401000000009004565b6200012f640100000000026401000000009004565b8073ffffffffffffffffffffffffffffffffffffffff1660808173ffffffffffffffffffffffffffffffffffffffff166c010000000000000000000000000281525050505050620007c0565b600033905090565b6000600560009054906101000a900473ffffffffffffffffffffffffffffffffffffffff16905081600560006101000a81548173ffffffffffffffffffffffffffffffffffffffff021916908373ffffffffffffffffffffffffffffffffffffffff1602179055508173ffffffffffffffffffffffffffffffffffffffff168173ffffffffffffffffffffffffffffffffffffffff167f8be0079c531659141344cd1fd0a4f28419497f9722a3daafe3b4186f6b6457e060405160405180910390a35050565b82805462000203906200068f565b90600052602060002090601f01602090048101928262000227576000855562000273565b82601f106200024257805160ff191683800117855562000273565b8280016001018555821562000273579182015b828111156200027257825182559160200191906001019062000255565b5b50905062000282919062000286565b5090565b5b80821115620002a157600081600090555060010162000287565b5090565b6000620002bc620002b684620003df565b620003b6565b905082815260208101848484011115620002d557600080fd5b620002e284828562000659565b509392505050565b600081519050620002fb81620007a6565b92915050565b600082601f8301126200031357600080fd5b815162000325848260208601620002a5565b91505092915050565b6000806000606084860312156200034457600080fd5b600084015167ffffffffffffffff8111156200035f57600080fd5b6200036d8682870162000301565b935050602084015167ffffffffffffffff8111156200038b57600080fd5b620003998682870162000301565b9250506040620003ac86828701620002ea565b9150509250925092565b6000620003c2620003d5565b9050620003d08282620006c5565b919050565b6000604051905090565b600067ffffffffffffffff821115620003fd57620003fc62000759565b5b620004088262000788565b9050602081019050919050565b6000808291508390505b600185111562000467578086048111156200043f576200043e620006fb565b5b60018516156200044f5780820291505b80810290506200045f8562000799565b94506200041f565b94509492505050565b60006200047d8262000642565b91506200048a836200064c565b9250620004b97fffffffffffffffffffffffffffffffffffffffffffffffffffffffffffffffff8484620004c1565b905092915050565b600082620004d35760019050620005a6565b81620004e35760009050620005a6565b8160018114620004fc576002811462000507576200053d565b6001915050620005a6565b60ff8411156200051c576200051b620006fb565b5b8360020a915084821115620005365762000535620006fb565b5b50620005a6565b5060208310610133831016604e8410600b8410161715620005775782820a905083811115620005715762000570620006fb565b5b620005a6565b62000586848484600162000415565b92509050818404811115620005a0576200059f620006fb565b5b81810290505b9392505050565b6000620005ba8262000642565b9150620005c78362000642565b9250817fffffffffffffffffffffffffffffffffffffffffffffffffffffffffffffffff0483118215151615620006035762000602620006fb565b5b828202905092915050565b60006200061b8262000622565b9050919050565b600073ffffffffffffffffffffffffffffffffffffffff82169050919050565b6000819050919050565b600060ff82169050919050565b60005b83811015620006795780820151818401526020810190506200065c565b8381111562000689576000848401525b50505050565b60006002820490506001821680620006a857607f821691505b60208210811415620006bf57620006be6200072a565b5b50919050565b620006d08262000788565b810181811067ffffffffffffffff82111715620006f257620006f162000759565b5b80604052505050565b7f4e487b7100000000000000000000000000000000000000000000000000000000600052601160045260246000fd5b7f4e487b7100000000000000000000000000000000000000000000000000000000600052602260045260246000fd5b7f4e487b7100000000000000000000000000000000000000000000000000000000600052604160045260246000fd5b6000601f19601f8301169050919050565b6000600282049050919050565b620007b1816200060e565b8114620007bd57600080fd5b50565b6080516c010000000000000000000000009004613043620008166000396000818161089101528181610a1101528181610bef015281816111f20152818161138a015281816114db01526115f701526130436000f3fe608060405234801561001057600080fd5b50600436106101e1576000357c01000000000000000000000000000000000000000000000000000000009004806370a0823111610116578063b4eae1cb116100b4578063dd62ed3e1161008e578063dd62ed3e14610504578063f16e9f7e14610534578063f2fde38b14610552578063f3fef3a31461056e576101e1565b8063b4eae1cb146104aa578063c5a92656146104c8578063c98c05b7146104e6576101e1565b80638da5cb5b116100f05780638da5cb5b1461040e57806395d89b411461042c578063a457c2d71461044a578063a9059cbb1461047a576101e1565b806370a08231146103b8578063715018a6146103e857806379cc6790146103f2576101e1565b8063399c042511610183578063535334b01161015d578063535334b0146103445780635425f141146103625780635891de721461037e5780635b29dcbb1461039c576101e1565b8063399c0425146102ee57806340c10f191461030c57806342966c6814610328576101e1565b806318160ddd116101bf57806318160ddd1461025257806323b872dd14610270578063313ce567146102a057806339509351146102be576101e1565b806306fdde03146101e6578063095ea7b314610204578063158ef93e14610234575b600080fd5b6101ee61058a565b6040516101fb91906124e7565b60405180910390f35b61021e6004803603810190610219919061208a565b61061c565b60405161022b91906124cc565b60405180910390f35b61023c61063a565b60405161024991906124cc565b60405180910390f35b61025a61064d565b60405161026791906126e9565b60405180910390f35b61028a6004803603810190610285919061203b565b610657565b60405161029791906124cc565b60405180910390f35b6102a861074f565b6040516102b59190612704565b60405180910390f35b6102d860048036038101906102d3919061208a565b610758565b6040516102e591906124cc565b60405180910390f35b6102f6610804565b60405161030391906126e9565b60405180910390f35b6103266004803603810190610321919061208a565b61085a565b005b610342600480360381019061033d9190612118565b61096a565b005b61034c61097e565b6040516103599190612704565b60405180910390f35b61037c600480360381019061037791906120ef565b610983565b005b610386610a0d565b60405161039391906126e9565b60405180910390f35b6103b660048036038101906103b1919061216a565b610b9b565b005b6103d260048036038101906103cd9190611fd6565b610edd565b6040516103df91906126e9565b60405180910390f35b6103f0610f25565b005b61040c6004803603810190610407919061208a565b610fad565b005b610416611028565b6040516104239190612451565b60405180910390f35b610434611052565b60405161044191906124e7565b60405180910390f35b610464600480360381019061045f919061208a565b6110e4565b60405161047191906124cc565b60405180910390f35b610494600480360381019061048f919061208a565b6111cf565b6040516104a191906124cc565b60405180910390f35b6104b26111ed565b6040516104bf91906126e9565b60405180910390f35b6104d0611380565b6040516104dd91906126e9565b60405180910390f35b6104ee611386565b6040516104fb91906126e9565b60405180910390f35b61051e60048036038101906105199190611fff565b611452565b60405161052b91906126e9565b60405180910390f35b61053c6114d9565b6040516105499190612451565b60405180910390f35b61056c60048036038101906105679190611fd6565b6114fd565b005b6105886004803603810190610583919061208a565b6115f5565b005b60606003805461059990612a8e565b80601f01602080910402602001604051908101604052809291908181526020018280546105c590612a8e565b80156106125780601f106105e757610100808354040283529160200191610612565b820191906000526020600020905b8154815290600101906020018083116105f557829003601f168201915b5050505050905090565b60006106306106296116fd565b8484611705565b6001905092915050565b600760009054906101000a900460ff1681565b6000600254905090565b60006106648484846118d0565b6000600160008673ffffffffffffffffffffffffffffffffffffffff1673ffffffffffffffffffffffffffffffffffffffff16815260200190815260200160002060006106af6116fd565b73ffffffffffffffffffffffffffffffffffffffff1673ffffffffffffffffffffffffffffffffffffffff1681526020019081526020016000205490508281101561072f576040517f08c379a0000000000000000000000000000000000000000000000000000000008152600401610726906125c9565b60405180910390fd5b6107438561073b6116fd565b858403611705565b60019150509392505050565b60006012905090565b60006107fa6107656116fd565b8484600160006107736116fd565b73ffffffffffffffffffffffffffffffffffffffff1673ffffffffffffffffffffffffffffffffffffffff16815260200190815260200160002060008873ffffffffffffffffffffffffffffffffffffffff1673ffffffffffffffffffffffffffffffffffffffff168152602001908152602001600020546107f5919061273b565b611705565b6001905092915050565b60008061080f6111ed565b90506000600260046108219190612791565b600a61082d919061284c565b6006548361083b919061296a565b61084591906127c8565b90508082610853919061273b565b9250505090565b600061086461074f565b600a610870919061284c565b82610879610804565b610883919061296a565b61088d91906127c8565b90507f000000000000000000000000000000000000000000000000000000000000000073ffffffffffffffffffffffffffffffffffffffff166323b872dd3330846040518463ffffffff167c01000000000000000000000000000000000000000000000000000000000281526004016109089392919061246c565b602060405180830381600087803b15801561092257600080fd5b505af1158015610936573d6000803e3d6000fd5b505050506040513d601f19601f8201168201806040525081019061095a91906120c6565b506109658383611b51565b505050565b61097b6109756116fd565b82611cb1565b50565b600481565b61098b6116fd565b73ffffffffffffffffffffffffffffffffffffffff166109a9611028565b73ffffffffffffffffffffffffffffffffffffffff16146109ff576040517f08c379a00000000000000000000000000000000000000000000000000000000081526004016109f6906125e9565b60405180910390fd5b8061ffff1660068190555050565b60007f000000000000000000000000000000000000000000000000000000000000000073ffffffffffffffffffffffffffffffffffffffff166370a08231306040518263ffffffff167c0100000000000000000000000000000000000000000000000000000000028152600401610a849190612451565b60206040518083038186803b158015610a9c57600080fd5b505afa158015610ab0573d6000803e3d6000fd5b505050506040513d601f19601f82011682018060405250810190610ad49190612141565b610adc61074f565b600a610ae8919061284c565b3073ffffffffffffffffffffffffffffffffffffffff166318160ddd6040518163ffffffff167c010000000000000000000000000000000000000000000000000000000002815260040160206040518083038186803b158015610b4a57600080fd5b505afa158015610b5e573d6000803e3d6000fd5b505050506040513d601f19601f82011682018060405250810190610b829190612141565b610b8c919061296a565b610b9691906127c8565b905090565b600760009054906101000a900460ff1615610beb576040517f08c379a0000000000000000000000000000000000000000000000000000000008152600401610be290612609565b60405180910390fd5b60007f000000000000000000000000000000000000000000000000000000000000000090508073ffffffffffffffffffffffffffffffffffffffff1663095ea7b330610c3561074f565b600a610c41919061284c565b86610c4c919061296a565b6040518363ffffffff167c0100000000000000000000000000000000000000000000000000000000028152600401610c859291906124a3565b602060405180830381600087803b158015610c9f57600080fd5b505af1158015610cb3573d6000803e3d6000fd5b505050506040513d601f19601f82011682018060405250810190610cd791906120c6565b50610ce061074f565b60ff168173ffffffffffffffffffffffffffffffffffffffff1663313ce5676040518163ffffffff167c010000000000000000000000000000000000000000000000000000000002815260040160206040518083038186803b158015610d4557600080fd5b505afa158015610d59573d6000803e3d6000fd5b505050506040513d601f19601f82011682018060405250810190610d7d91906121a6565b60ff1614610dc0576040517f08c379a0000000000000000000000000000000000000000000000000000000008152600401610db7906125a9565b60405180910390fd5b8073ffffffffffffffffffffffffffffffffffffffff166323b872dd3330610de661074f565b600a610df2919061284c565b87610dfd919061296a565b6040518463ffffffff167c0100000000000000000000000000000000000000000000000000000000028152600401610e379392919061246c565b602060405180830381600087803b158015610e5157600080fd5b505af1158015610e65573d6000803e3d6000fd5b505050506040513d601f19601f82011682018060405250810190610e8991906120c6565b50610ebd33610e9661074f565b600a610ea2919061284c565b8585610eae919061296a565b610eb8919061296a565b611b51565b6001600760006101000a81548160ff021916908315150217905550505050565b60008060008373ffffffffffffffffffffffffffffffffffffffff1673ffffffffffffffffffffffffffffffffffffffff168152602001908152602001600020549050919050565b610f2d6116fd565b73ffffffffffffffffffffffffffffffffffffffff16610f4b611028565b73ffffffffffffffffffffffffffffffffffffffff1614610fa1576040517f08c379a0000000000000000000000000000000000000000000000000000000008152600401610f98906125e9565b60405180910390fd5b610fab6000611e88565b565b6000610fc083610fbb6116fd565b611452565b905081811015611005576040517f08c379a0000000000000000000000000000000000000000000000000000000008152600401610ffc90612629565b60405180910390fd5b611019836110116116fd565b848403611705565b6110238383611cb1565b505050565b6000600560009054906101000a900473ffffffffffffffffffffffffffffffffffffffff16905090565b60606004805461106190612a8e565b80601f016020809104026020016040519081016040528092919081815260200182805461108d90612a8e565b80156110da5780601f106110af576101008083540402835291602001916110da565b820191906000526020600020905b8154815290600101906020018083116110bd57829003601f168201915b5050505050905090565b600080600160006110f36116fd565b73ffffffffffffffffffffffffffffffffffffffff1673ffffffffffffffffffffffffffffffffffffffff16815260200190815260200160002060008573ffffffffffffffffffffffffffffffffffffffff1673ffffffffffffffffffffffffffffffffffffffff168152602001908152602001600020549050828110156111b0576040517f08c379a00000000000000000000000000000000000000000000000000000000081526004016111a7906126a9565b60405180910390fd5b6111c46111bb6116fd565b85858403611705565b600191505092915050565b60006111e36111dc6116fd565b84846118d0565b6001905092915050565b6000807f000000000000000000000000000000000000000000000000000000000000000073ffffffffffffffffffffffffffffffffffffffff166370a08231306040518263ffffffff167c01000000000000000000000000000000000000000000000000000000000281526004016112659190612451565b60206040518083038186803b15801561127d57600080fd5b505afa158015611291573d6000803e3d6000fd5b505050506040513d601f19601f820116820180604052508101906112b59190612141565b90503073ffffffffffffffffffffffffffffffffffffffff166318160ddd6040518163ffffffff167c010000000000000000000000000000000000000000000000000000000002815260040160206040518083038186803b15801561131957600080fd5b505afa15801561132d573d6000803e3d6000fd5b505050506040513d601f19601f820116820180604052508101906113519190612141565b61135961074f565b600a611365919061284c565b82611370919061296a565b61137a91906127c8565b91505090565b60065481565b60007f000000000000000000000000000000000000000000000000000000000000000073ffffffffffffffffffffffffffffffffffffffff166370a08231306040518263ffffffff167c01000000000000000000000000000000000000000000000000000000000281526004016113fd9190612451565b60206040518083038186803b15801561141557600080fd5b505afa158015611429573d6000803e3d6000fd5b505050506040513d601f19601f8201168201806040525081019061144d9190612141565b905090565b6000600160008473ffffffffffffffffffffffffffffffffffffffff1673ffffffffffffffffffffffffffffffffffffffff16815260200190815260200160002060008373ffffffffffffffffffffffffffffffffffffffff1673ffffffffffffffffffffffffffffffffffffffff16815260200190815260200160002054905092915050565b7f000000000000000000000000000000000000000000000000000000000000000081565b6115056116fd565b73ffffffffffffffffffffffffffffffffffffffff16611523611028565b73ffffffffffffffffffffffffffffffffffffffff1614611579576040517f08c379a0000000000000000000000000000000000000000000000000000000008152600401611570906125e9565b60405180910390fd5b600073ffffffffffffffffffffffffffffffffffffffff168173ffffffffffffffffffffffffffffffffffffffff1614156115e9576040517f08c379a00000000000000000000000000000000000000000000000000000000081526004016115e090612549565b60405180910390fd5b6115f281611e88565b50565b7f000000000000000000000000000000000000000000000000000000000000000073ffffffffffffffffffffffffffffffffffffffff1663a9059cbb8361163a61074f565b600a611646919061284c565b8461164f6111ed565b611659919061296a565b61166391906127c8565b6040518363ffffffff167c010000000000000000000000000000000000000000000000000000000002815260040161169c9291906124a3565b602060405180830381600087803b1580156116b657600080fd5b505af11580156116ca573d6000803e3d6000fd5b505050506040513d601f19601f820116820180604052508101906116ee91906120c6565b506116f93382611cb1565b5050565b600033905090565b600073ffffffffffffffffffffffffffffffffffffffff168373ffffffffffffffffffffffffffffffffffffffff161415611775576040517f08c379a000000000000000000000000000000000000000000000000000000000815260040161176c90612689565b60405180910390fd5b600073ffffffffffffffffffffffffffffffffffffffff168273ffffffffffffffffffffffffffffffffffffffff1614156117e5576040517f08c379a00000000000000000000000000000000000000000000000000000000081526004016117dc90612569565b60405180910390fd5b80600160008573ffffffffffffffffffffffffffffffffffffffff1673ffffffffffffffffffffffffffffffffffffffff16815260200190815260200160002060008473ffffffffffffffffffffffffffffffffffffffff1673ffffffffffffffffffffffffffffffffffffffff168152602001908152602001600020819055508173ffffffffffffffffffffffffffffffffffffffff168373ffffffffffffffffffffffffffffffffffffffff167f8c5be1e5ebec7d5bd14f71427d1e84f3dd0314c0f7b2291e5b200ac8c7c3b925836040516118c391906126e9565b60405180910390a3505050565b600073ffffffffffffffffffffffffffffffffffffffff168373ffffffffffffffffffffffffffffffffffffffff161415611940576040517f08c379a000000000000000000000000000000000000000000000000000000000815260040161193790612669565b60405180910390fd5b600073ffffffffffffffffffffffffffffffffffffffff168273ffffffffffffffffffffffffffffffffffffffff1614156119b0576040517f08c379a00000000000000000000000000000000000000000000000000000000081526004016119a790612509565b60405180910390fd5b6119bb838383611f4e565b60008060008573ffffffffffffffffffffffffffffffffffffffff1673ffffffffffffffffffffffffffffffffffffffff16815260200190815260200160002054905081811015611a41576040517f08c379a0000000000000000000000000000000000000000000000000000000008152600401611a3890612589565b60405180910390fd5b8181036000808673ffffffffffffffffffffffffffffffffffffffff1673ffffffffffffffffffffffffffffffffffffffff16815260200190815260200160002081905550816000808573ffffffffffffffffffffffffffffffffffffffff1673ffffffffffffffffffffffffffffffffffffffff1681526020019081526020016000206000828254611ad4919061273b565b925050819055508273ffffffffffffffffffffffffffffffffffffffff168473ffffffffffffffffffffffffffffffffffffffff167fddf252ad1be2c89b69c2b068fc378daa952ba7f163c4a11628f55a4df523b3ef84604051611b3891906126e9565b60405180910390a3611b4b848484611f53565b50505050565b600073ffffffffffffffffffffffffffffffffffffffff168273ffffffffffffffffffffffffffffffffffffffff161415611bc1576040517f08c379a0000000000000000000000000000000000000000000000000000000008152600401611bb8906126c9565b60405180910390fd5b611bcd60008383611f4e565b8060026000828254611bdf919061273b565b92505081905550806000808473ffffffffffffffffffffffffffffffffffffffff1673ffffffffffffffffffffffffffffffffffffffff1681526020019081526020016000206000828254611c34919061273b565b925050819055508173ffffffffffffffffffffffffffffffffffffffff16600073ffffffffffffffffffffffffffffffffffffffff167fddf252ad1be2c89b69c2b068fc378daa952ba7f163c4a11628f55a4df523b3ef83604051611c9991906126e9565b60405180910390a3611cad60008383611f53565b5050565b600073ffffffffffffffffffffffffffffffffffffffff168273ffffffffffffffffffffffffffffffffffffffff161415611d21576040517f08c379a0000000000000000000000000000000000000000000000000000000008152600401611d1890612649565b60405180910390fd5b611d2d82600083611f4e565b60008060008473ffffffffffffffffffffffffffffffffffffffff1673ffffffffffffffffffffffffffffffffffffffff16815260200190815260200160002054905081811015611db3576040517f08c379a0000000000000000000000000000000000000000000000000000000008152600401611daa90612529565b60405180910390fd5b8181036000808573ffffffffffffffffffffffffffffffffffffffff1673ffffffffffffffffffffffffffffffffffffffff168152602001908152602001600020819055508160026000828254611e0a91906129c4565b92505081905550600073ffffffffffffffffffffffffffffffffffffffff168373ffffffffffffffffffffffffffffffffffffffff167fddf252ad1be2c89b69c2b068fc378daa952ba7f163c4a11628f55a4df523b3ef84604051611e6f91906126e9565b60405180910390a3611e8383600084611f53565b505050565b6000600560009054906101000a900473ffffffffffffffffffffffffffffffffffffffff16905081600560006101000a81548173ffffffffffffffffffffffffffffffffffffffff021916908373ffffffffffffffffffffffffffffffffffffffff1602179055508173ffffffffffffffffffffffffffffffffffffffff168173ffffffffffffffffffffffffffffffffffffffff167f8be0079c531659141344cd1fd0a4f28419497f9722a3daafe3b4186f6b6457e060405160405180910390a35050565b505050565b505050565b600081359050611f6781612f9a565b92915050565b600081519050611f7c81612fb1565b92915050565b600081359050611f9181612fc8565b92915050565b600081359050611fa681612fdf565b92915050565b600081519050611fbb81612fdf565b92915050565b600081519050611fd081612ff6565b92915050565b600060208284031215611fe857600080fd5b6000611ff684828501611f58565b91505092915050565b6000806040838503121561201257600080fd5b600061202085828601611f58565b925050602061203185828601611f58565b9150509250929050565b60008060006060848603121561205057600080fd5b600061205e86828701611f58565b935050602061206f86828701611f58565b925050604061208086828701611f97565b9150509250925092565b6000806040838503121561209d57600080fd5b60006120ab85828601611f58565b92505060206120bc85828601611f97565b9150509250929050565b6000602082840312156120d857600080fd5b60006120e684828501611f6d565b91505092915050565b60006020828403121561210157600080fd5b600061210f84828501611f82565b91505092915050565b60006020828403121561212a57600080fd5b600061213884828501611f97565b91505092915050565b60006020828403121561215357600080fd5b600061216184828501611fac565b91505092915050565b6000806040838503121561217d57600080fd5b600061218b85828601611f97565b925050602061219c85828601611f97565b9150509250929050565b6000602082840312156121b857600080fd5b60006121c684828501611fc1565b91505092915050565b6121d8816129f8565b82525050565b6121e781612a0a565b82525050565b60006121f88261271f565b612202818561272a565b9350612212818560208601612a5b565b61221b81612b4d565b840191505092915050565b600061223360238361272a565b915061223e82612b6b565b604082019050919050565b600061225660228361272a565b915061226182612bba565b604082019050919050565b600061227960268361272a565b915061228482612c09565b604082019050919050565b600061229c60228361272a565b91506122a782612c58565b604082019050919050565b60006122bf60268361272a565b91506122ca82612ca7565b604082019050919050565b60006122e260328361272a565b91506122ed82612cf6565b604082019050919050565b600061230560288361272a565b915061231082612d45565b604082019050919050565b600061232860208361272a565b915061233382612d94565b602082019050919050565b600061234b601c8361272a565b915061235682612dbd565b602082019050919050565b600061236e60248361272a565b915061237982612de6565b604082019050919050565b600061239160218361272a565b915061239c82612e35565b604082019050919050565b60006123b460258361272a565b91506123bf82612e84565b604082019050919050565b60006123d760248361272a565b91506123e282612ed3565b604082019050919050565b60006123fa60258361272a565b915061240582612f22565b604082019050919050565b600061241d601f8361272a565b915061242882612f71565b602082019050919050565b61243c81612a44565b82525050565b61244b81612a4e565b82525050565b600060208201905061246660008301846121cf565b92915050565b600060608201905061248160008301866121cf565b61248e60208301856121cf565b61249b6040830184612433565b949350505050565b60006040820190506124b860008301856121cf565b6124c56020830184612433565b9392505050565b60006020820190506124e160008301846121de565b92915050565b6000602082019050818103600083015261250181846121ed565b905092915050565b6000602082019050818103600083015261252281612226565b9050919050565b6000602082019050818103600083015261254281612249565b9050919050565b600060208201905081810360008301526125628161226c565b9050919050565b600060208201905081810360008301526125828161228f565b9050919050565b600060208201905081810360008301526125a2816122b2565b9050919050565b600060208201905081810360008301526125c2816122d5565b9050919050565b600060208201905081810360008301526125e2816122f8565b9050919050565b600060208201905081810360008301526126028161231b565b9050919050565b600060208201905081810360008301526126228161233e565b9050919050565b6000602082019050818103600083015261264281612361565b9050919050565b6000602082019050818103600083015261266281612384565b9050919050565b60006020820190508181036000830152612682816123a7565b9050919050565b600060208201905081810360008301526126a2816123ca565b9050919050565b600060208201905081810360008301526126c2816123ed565b9050919050565b600060208201905081810360008301526126e281612410565b9050919050565b60006020820190506126fe6000830184612433565b92915050565b60006020820190506127196000830184612442565b92915050565b600081519050919050565b600082825260208201905092915050565b600061274682612a44565b915061275183612a44565b9250827fffffffffffffffffffffffffffffffffffffffffffffffffffffffffffffffff0382111561278657612785612ac0565b5b828201905092915050565b600061279c82612a4e565b91506127a783612a4e565b92508260ff038211156127bd576127bc612ac0565b5b828201905092915050565b60006127d382612a44565b91506127de83612a44565b9250826127ee576127ed612aef565b5b828204905092915050565b6000808291508390505b60018511156128435780860481111561281f5761281e612ac0565b5b600185161561282e5780820291505b808102905061283c85612b5e565b9450612803565b94509492505050565b600061285782612a44565b915061286283612a4e565b925061288f7fffffffffffffffffffffffffffffffffffffffffffffffffffffffffffffffff8484612897565b905092915050565b6000826128a75760019050612963565b816128b55760009050612963565b81600181146128cb57600281146128d557612904565b6001915050612963565b60ff8411156128e7576128e6612ac0565b5b8360020a9150848211156128fe576128fd612ac0565b5b50612963565b5060208310610133831016604e8410600b84101617156129395782820a90508381111561293457612933612ac0565b5b612963565b61294684848460016127f9565b9250905081840481111561295d5761295c612ac0565b5b81810290505b9392505050565b600061297582612a44565b915061298083612a44565b9250817fffffffffffffffffffffffffffffffffffffffffffffffffffffffffffffffff04831182151516156129b9576129b8612ac0565b5b828202905092915050565b60006129cf82612a44565b91506129da83612a44565b9250828210156129ed576129ec612ac0565b5b828203905092915050565b6000612a0382612a24565b9050919050565b60008115159050919050565b600061ffff82169050919050565b600073ffffffffffffffffffffffffffffffffffffffff82169050919050565b6000819050919050565b600060ff82169050919050565b60005b83811015612a79578082015181840152602081019050612a5e565b83811115612a88576000848401525b50505050565b60006002820490506001821680612aa657607f821691505b60208210811415612aba57612ab9612b1e565b5b50919050565b7f4e487b7100000000000000000000000000000000000000000000000000000000600052601160045260246000fd5b7f4e487b7100000000000000000000000000000000000000000000000000000000600052601260045260246000fd5b7f4e487b7100000000000000000000000000000000000000000000000000000000600052602260045260246000fd5b6000601f19601f8301169050919050565b6000600282049050919050565b7f45524332303a207472616e7366657220746f20746865207a65726f206164647260008201527f6573730000000000000000000000000000000000000000000000000000000000602082015250565b7f45524332303a206275726e20616d6f756e7420657863656564732062616c616e60008201527f6365000000000000000000000000000000000000000000000000000000000000602082015250565b7f4f776e61626c653a206e6577206f776e657220697320746865207a65726f206160008201527f6464726573730000000000000000000000000000000000000000000000000000602082015250565b7f45524332303a20617070726f766520746f20746865207a65726f20616464726560008201527f7373000000000000000000000000000000000000000000000000000000000000602082015250565b7f45524332303a207472616e7366657220616d6f756e742065786365656473206260008201527f616c616e63650000000000000000000000000000000000000000000000000000602082015250565b7f446563696d616c732066726f6d20636f6c6c61746572616c20616e642074686960008201527f73204552433230206d757374206d617463680000000000000000000000000000602082015250565b7f45524332303a207472616e7366657220616d6f756e742065786365656473206160008201527f6c6c6f77616e6365000000000000000000000000000000000000000000000000602082015250565b7f4f776e61626c653a2063616c6c6572206973206e6f7420746865206f776e6572600082015250565b7f436f6e747261637420616c726561647920696e697469616c697a656400000000600082015250565b7f45524332303a206275726e20616d6f756e74206578636565647320616c6c6f7760008201527f616e636500000000000000000000000000000000000000000000000000000000602082015250565b7f45524332303a206275726e2066726f6d20746865207a65726f2061646472657360008201527f7300000000000000000000000000000000000000000000000000000000000000602082015250565b7f45524332303a207472616e736665722066726f6d20746865207a65726f20616460008201527f6472657373000000000000000000000000000000000000000000000000000000602082015250565b7f45524332303a20617070726f76652066726f6d20746865207a65726f2061646460008201527f7265737300000000000000000000000000000000000000000000000000000000602082015250565b7f45524332303a2064656372656173656420616c6c6f77616e63652062656c6f7760008201527f207a65726f000000000000000000000000000000000000000000000000000000602082015250565b7f45524332303a206d696e7420746f20746865207a65726f206164647265737300600082015250565b612fa3816129f8565b8114612fae57600080fd5b50565b612fba81612a0a565b8114612fc557600080fd5b50565b612fd181612a16565b8114612fdc57600080fd5b50565b612fe881612a44565b8114612ff357600080fd5b50565b612fff81612a4e565b811461300a57600080fd5b5056fea264697066735822122019ba7b5fb197db77be53beb30e16fe0f9a7935b10fc101a6725cc76a8ce8958f64736f6c63430008020033",
  "immutableReferences": {
    "859": [
      {
        "length": 32,
        "start": 2193
      },
      {
        "length": 32,
        "start": 2577
      },
      {
        "length": 32,
        "start": 3055
      },
      {
        "length": 32,
        "start": 4594
      },
      {
        "length": 32,
        "start": 5002
      },
      {
        "length": 32,
        "start": 5339
      },
      {
        "length": 32,
        "start": 5623
      }
    ]
  },
  "source": "// SPDX-License-Identifier: MIT\npragma solidity ^0.8.2;\n\nimport \"@openzeppelin/contracts/token/ERC20/ERC20.sol\";\nimport \"@openzeppelin/contracts/token/ERC20/extensions/ERC20Burnable.sol\";\nimport \"@openzeppelin/contracts/access/Ownable.sol\";\n\ncontract ERC20Collateral is ERC20, ERC20Burnable, Ownable {\n    uint8 public constant markup_decimals = 4;\n    uint public markup = 1 * 10 ** markup_decimals; // 1%\n    \n    address public immutable collateral_contract;\n    \n    bool public initialized = false;\n    \n    // Collateral without decimals\n    constructor(string memory name_, string memory symbol_, address collateral_contract_) ERC20(name_, symbol_) {\n        collateral_contract = collateral_contract_;\n    }\n    \n    function initiliaze(uint collateral, uint starting_ratio) public {\n        require(!initialized, 'Contract already initialized');\n        ERC20 collateralContract = ERC20(collateral_contract);\n        \n        collateralContract.approve(address(this), collateral * 10 ** decimals());\n        \n        require(collateralContract.decimals() == decimals(), 'Decimals from collateral and this ERC20 must match');\n        \n        collateralContract.transferFrom(msg.sender, address(this), collateral * 10 ** decimals());\n        _mint(msg.sender, starting_ratio * collateral * 10 ** decimals());\n        initialized = true;\n    }\n    \n    function mint(address to, uint amount) public { //Amount for this ERC20\n        // Transfer collateral from users wallet to current contract\n        uint collateral_amount = buyingPrice() * amount / 10 ** decimals();\n        ERC20(collateral_contract).transferFrom(msg.sender, address(this), collateral_amount);\n        _mint(to, amount);\n    }\n    \n    function withdraw(address to, uint amount) public { //Amount for this ERC20\n        // Transfer collateral back to user wallet to current contract\n        ERC20(collateral_contract).transfer(to, collateralRatio() * amount / 10 ** decimals());\n        \n        //Burn tokens\n        _burn(msg.sender, amount);\n    }\n    \n    function setMarkup(uint16 val) public onlyOwner {\n        markup = val;\n    }\n    \n    function collateralBalance() external view returns (uint){\n        return ERC20(collateral_contract).balanceOf(address(this));\n    }\n    \n    function buyingPrice() public view returns (uint) {\n        uint base_price = collateralRatio();\n        uint fee = (base_price * markup) / (10 ** (markup_decimals + 2));\n        return base_price + fee;\n    }\n    \n    function collateralPrice() public view returns (uint) {\n        return (this.totalSupply() * 10 ** decimals()) / ERC20(collateral_contract).balanceOf(address(this));\n    }\n    \n    \n    function collateralRatio() public view returns (uint){\n        uint currentCollateral = ERC20(collateral_contract).balanceOf(address(this));\n        return (currentCollateral * 10 ** decimals()) / this.totalSupply();\n    }\n}",
  "sourcePath": "/Users/agustinkassis/Development/peronio/erc20-collateral/contracts/ERC20Collateral.sol",
  "compiler": {
    "name": "solc",
    "version": "0.8.2+commit.661d1103.Emscripten.clang"
  },
  "schemaVersion": "3.4.3",
  "updatedAt": "2021-09-15T03:32:22.165Z",
  "networkType": "ethereum",
  "devdoc": {
    "kind": "dev",
    "methods": {
      "allowance(address,address)": {
        "details": "See {IERC20-allowance}."
      },
      "approve(address,uint256)": {
        "details": "See {IERC20-approve}. Requirements: - `spender` cannot be the zero address."
      },
      "balanceOf(address)": {
        "details": "See {IERC20-balanceOf}."
      },
      "burn(uint256)": {
        "details": "Destroys `amount` tokens from the caller. See {ERC20-_burn}."
      },
      "burnFrom(address,uint256)": {
        "details": "Destroys `amount` tokens from `account`, deducting from the caller's allowance. See {ERC20-_burn} and {ERC20-allowance}. Requirements: - the caller must have allowance for ``accounts``'s tokens of at least `amount`."
      },
      "decimals()": {
        "details": "Returns the number of decimals used to get its user representation. For example, if `decimals` equals `2`, a balance of `505` tokens should be displayed to a user as `5.05` (`505 / 10 ** 2`). Tokens usually opt for a value of 18, imitating the relationship between Ether and Wei. This is the value {ERC20} uses, unless this function is overridden; NOTE: This information is only used for _display_ purposes: it in no way affects any of the arithmetic of the contract, including {IERC20-balanceOf} and {IERC20-transfer}."
      },
      "decreaseAllowance(address,uint256)": {
        "details": "Atomically decreases the allowance granted to `spender` by the caller. This is an alternative to {approve} that can be used as a mitigation for problems described in {IERC20-approve}. Emits an {Approval} event indicating the updated allowance. Requirements: - `spender` cannot be the zero address. - `spender` must have allowance for the caller of at least `subtractedValue`."
      },
      "increaseAllowance(address,uint256)": {
        "details": "Atomically increases the allowance granted to `spender` by the caller. This is an alternative to {approve} that can be used as a mitigation for problems described in {IERC20-approve}. Emits an {Approval} event indicating the updated allowance. Requirements: - `spender` cannot be the zero address."
      },
      "name()": {
        "details": "Returns the name of the token."
      },
      "owner()": {
        "details": "Returns the address of the current owner."
      },
      "renounceOwnership()": {
        "details": "Leaves the contract without owner. It will not be possible to call `onlyOwner` functions anymore. Can only be called by the current owner. NOTE: Renouncing ownership will leave the contract without an owner, thereby removing any functionality that is only available to the owner."
      },
      "symbol()": {
        "details": "Returns the symbol of the token, usually a shorter version of the name."
      },
      "totalSupply()": {
        "details": "See {IERC20-totalSupply}."
      },
      "transfer(address,uint256)": {
        "details": "See {IERC20-transfer}. Requirements: - `recipient` cannot be the zero address. - the caller must have a balance of at least `amount`."
      },
      "transferFrom(address,address,uint256)": {
        "details": "See {IERC20-transferFrom}. Emits an {Approval} event indicating the updated allowance. This is not required by the EIP. See the note at the beginning of {ERC20}. Requirements: - `sender` and `recipient` cannot be the zero address. - `sender` must have a balance of at least `amount`. - the caller must have allowance for ``sender``'s tokens of at least `amount`."
      },
      "transferOwnership(address)": {
        "details": "Transfers ownership of the contract to a new account (`newOwner`). Can only be called by the current owner."
      }
    },
    "version": 1
  },
  "userdoc": {
    "kind": "user",
    "methods": {},
    "version": 1
  }
}